{
  "contractName": "FraudReporting",
  "abi": [
    {
      "constant": true,
      "inputs": [],
      "name": "bountiesClaimed",
      "outputs": [
        {
          "name": "",
          "type": "uint256"
        }
      ],
      "payable": false,
      "stateMutability": "view",
      "type": "function"
    },
    {
      "constant": false,
      "inputs": [
        {
          "name": "fraudReportId",
          "type": "uint256"
        }
      ],
      "name": "upVoteFraudReport",
      "outputs": [],
      "payable": false,
      "stateMutability": "nonpayable",
      "type": "function"
    },
    {
      "constant": false,
      "inputs": [
        {
          "name": "fraudReportId",
          "type": "uint256"
        }
      ],
      "name": "rewardBountyToFraudReport",
      "outputs": [
        {
          "name": "",
          "type": "bool"
        }
      ],
      "payable": true,
      "stateMutability": "payable",
      "type": "function"
    },
    {
      "constant": true,
      "inputs": [],
      "name": "bountiesCounter",
      "outputs": [
        {
          "name": "",
          "type": "uint256"
        }
      ],
      "payable": false,
      "stateMutability": "view",
      "type": "function"
    },
    {
      "constant": false,
      "inputs": [
        {
          "name": "bountyAmount",
          "type": "uint256"
        }
      ],
      "name": "createBounty",
      "outputs": [
        {
          "name": "",
          "type": "uint256"
        }
      ],
      "payable": false,
      "stateMutability": "nonpayable",
      "type": "function"
    },
    {
      "constant": false,
      "inputs": [
        {
          "name": "fraudReportId",
          "type": "uint256"
        }
      ],
      "name": "downVoteFraudReport",
      "outputs": [],
      "payable": false,
      "stateMutability": "nonpayable",
      "type": "function"
    },
    {
      "constant": true,
      "inputs": [],
      "name": "fraudReportsCounter",
      "outputs": [
        {
          "name": "",
          "type": "uint256"
        }
      ],
      "payable": false,
      "stateMutability": "view",
      "type": "function"
    },
    {
      "constant": true,
      "inputs": [
        {
          "name": "",
          "type": "uint256"
        }
      ],
      "name": "fraudReports",
      "outputs": [
        {
          "name": "bountyHunter",
          "type": "address"
        },
        {
          "name": "url",
          "type": "string"
        },
        {
          "name": "bountyId",
          "type": "uint256"
        },
        {
          "name": "bountyClaimed",
          "type": "bool"
        },
        {
          "name": "votes",
          "type": "int256"
        }
      ],
      "payable": false,
      "stateMutability": "view",
      "type": "function"
    },
    {
      "constant": true,
      "inputs": [
        {
          "name": "",
          "type": "uint256"
        }
      ],
      "name": "bounties",
      "outputs": [
        {
          "name": "bountyCreator",
          "type": "address"
        },
        {
          "name": "bountyAmount",
          "type": "uint256"
        },
        {
          "name": "timesClaimed",
          "type": "uint256"
        }
      ],
      "payable": false,
      "stateMutability": "view",
      "type": "function"
    },
    {
      "constant": false,
      "inputs": [
        {
          "name": "url",
          "type": "string"
        },
        {
          "name": "bountyId",
          "type": "uint256"
        }
      ],
      "name": "createFraudReport",
      "outputs": [
        {
          "name": "",
          "type": "uint256"
        }
      ],
      "payable": false,
      "stateMutability": "nonpayable",
      "type": "function"
    },
    {
      "anonymous": false,
      "inputs": [
        {
          "indexed": false,
          "name": "url",
          "type": "string"
        },
        {
          "indexed": false,
          "name": "bountyId",
          "type": "uint256"
        },
        {
          "indexed": false,
          "name": "fraudReportId",
          "type": "uint256"
        }
      ],
      "name": "FraudReportCreated",
      "type": "event"
    },
    {
      "anonymous": false,
      "inputs": [
        {
          "indexed": false,
          "name": "bountyAmount",
          "type": "uint256"
        },
        {
          "indexed": false,
          "name": "bountyId",
          "type": "uint256"
        }
      ],
      "name": "BountyCreated",
      "type": "event"
    }
  ],
  "bytecode": "0x6060604052341561000f57600080fd5b610af78061001e6000396000f3006060604052600436106100a4576000357c0100000000000000000000000000000000000000000000000000000000900463ffffffff168063159b4edb146100a95780632074202a146100d25780632a06d910146100f55780633c2cb07b146101255780633f28e9fb1461014e5780634eb64fde146101855780638d4898c9146101a8578063b4754850146101d1578063dc2f8744146102d6578063ed8d602614610347575b600080fd5b34156100b457600080fd5b6100bc6103c1565b6040518082815260200191505060405180910390f35b34156100dd57600080fd5b6100f360048080359060200190919050506103c7565b005b61010b60048080359060200190919050506103ef565b604051808215151515815260200191505060405180910390f35b341561013057600080fd5b6101386105df565b6040518082815260200191505060405180910390f35b341561015957600080fd5b61016f60048080359060200190919050506105e5565b6040518082815260200191505060405180910390f35b341561019057600080fd5b6101a6600480803590602001909190505061070d565b005b34156101b357600080fd5b6101bb610736565b6040518082815260200191505060405180910390f35b34156101dc57600080fd5b6101f2600480803590602001909190505061073c565b604051808673ffffffffffffffffffffffffffffffffffffffff1673ffffffffffffffffffffffffffffffffffffffff16815260200180602001858152602001841515151581526020018381526020018281038252868181546001816001161561010002031660029004815260200191508054600181600116156101000203166002900480156102c35780601f10610298576101008083540402835291602001916102c3565b820191906000526020600020905b8154815290600101906020018083116102a657829003601f168201915b5050965050505050505060405180910390f35b34156102e157600080fd5b6102f7600480803590602001909190505061079e565b604051808473ffffffffffffffffffffffffffffffffffffffff1673ffffffffffffffffffffffffffffffffffffffff168152602001838152602001828152602001935050505060405180910390f35b341561035257600080fd5b6103ab600480803590602001908201803590602001908080601f016020809104026020016040519081016040528093929190818152602001838380828437820191505050505050919080359060200190919050506107e8565b6040518082815260200191505060405180910390f35b60045481565b6000808281526020019081526020016000206004016000815480929190600101919050555050565b6000816000151560008083815260200190815260200160002060030160009054906101000a900460ff16151514151561042757600080fd5b6002600080600086815260200190815260200160002060020154815260200190815260200160002060000160009054906101000a900473ffffffffffffffffffffffffffffffffffffffff1673ffffffffffffffffffffffffffffffffffffffff163373ffffffffffffffffffffffffffffffffffffffff161415156104ac57600080fd5b6002600080600086815260200190815260200160002060020154815260200190815260200160002060010154341415156104e557600080fd5b60008084815260200190815260200160002060000160009054906101000a900473ffffffffffffffffffffffffffffffffffffffff1673ffffffffffffffffffffffffffffffffffffffff166108fc349081150290604051600060405180830381858888f19350505050151561055a57600080fd5b600160008085815260200190815260200160002060030160006101000a81548160ff02191690831515021790555060026000806000868152602001908152602001600020600201548152602001908152602001600020600201600081548092919060010191905055506004600081548092919060010191905055506001915050919050565b60035481565b600080823373ffffffffffffffffffffffffffffffffffffffff16311015151561060e57600080fd5b600360008154809291906001019190505590506060604051908101604052803373ffffffffffffffffffffffffffffffffffffffff16815260200184815260200160008152506002600083815260200190815260200160002060008201518160000160006101000a81548173ffffffffffffffffffffffffffffffffffffffff021916908373ffffffffffffffffffffffffffffffffffffffff16021790555060208201518160010155604082015181600201559050507ff46f8eab4b89b16c93a68625462ed677086e581a321c1cbed51675427ddb6a788382604051808381526020018281526020019250505060405180910390a180915050919050565b600080828152602001908152602001600020600401600081548092919060019003919050555050565b60015481565b60006020528060005260406000206000915090508060000160009054906101000a900473ffffffffffffffffffffffffffffffffffffffff169080600101908060020154908060030160009054906101000a900460ff16908060040154905085565b60026020528060005260406000206000915090508060000160009054906101000a900473ffffffffffffffffffffffffffffffffffffffff16908060010154908060020154905083565b60008082600354811015156107fc57600080fd5b6002600085815260200190815260200160002060000160009054906101000a900473ffffffffffffffffffffffffffffffffffffffff1673ffffffffffffffffffffffffffffffffffffffff163373ffffffffffffffffffffffffffffffffffffffff161415151561086d57600080fd5b6001600081548092919060010191905055915060a0604051908101604052803373ffffffffffffffffffffffffffffffffffffffff168152602001868152602001858152602001600015158152602001600081525060008084815260200190815260200160002060008201518160000160006101000a81548173ffffffffffffffffffffffffffffffffffffffff021916908373ffffffffffffffffffffffffffffffffffffffff1602179055506020820151816001019080519060200190610937929190610a26565b506040820151816002015560608201518160030160006101000a81548160ff021916908315150217905550608082015181600401559050507fed2cc4c659107c5db35ee07103b0ca9ac8531ac11588ec574f5186e950212c608585846040518080602001848152602001838152602001828103825285818151815260200191508051906020019080838360005b838110156109df5780820151818401526020810190506109c4565b50505050905090810190601f168015610a0c5780820380516001836020036101000a031916815260200191505b5094505050505060405180910390a1819250505092915050565b828054600181600116156101000203166002900490600052602060002090601f016020900481019282601f10610a6757805160ff1916838001178555610a95565b82800160010185558215610a95579182015b82811115610a94578251825591602001919060010190610a79565b5b509050610aa29190610aa6565b5090565b610ac891905b80821115610ac4576000816000905550600101610aac565b5090565b905600a165627a7a72305820cbdd0566abb10961f48ce3b1caf7c71b22f08b62d6429ae02c01bc92782c4a290029",
  "source": "pragma solidity ^0.4.18;\n\ncontract FraudReporting {\n    \n    struct FraudReport {\n        address bountyHunter;\n        string url;\n        uint bountyId;\n        bool bountyClaimed;\n        int votes;\n    }\n\n    struct Bounty {\n        address bountyCreator;\n        uint bountyAmount;\n        uint timesClaimed;\n    }\n\n    mapping (uint => FraudReport) public fraudReports;\n    uint public fraudReportsCounter;\n    \n    mapping (uint => Bounty) public bounties;\n    uint public bountiesCounter;\n\n    uint public bountiesClaimed;\n\n    event FraudReportCreated(string url, uint bountyId, uint fraudReportId);\n    event BountyCreated(uint bountyAmount, uint bountyId);\n\n    modifier bountyIdExists(uint bountyId) {\n        require (bountyId < bountiesCounter);\n        _;\n    }\n\n    modifier fraudReportHasNotClaimedBounty(uint fraudReportId) {\n        require(fraudReports[fraudReportId].bountyClaimed == false);\n        _;\n    }\n\n    /* Creates a Fraud report given a url and a bounty id. By generating a fraud report, you have to register it to a specific Bounty, thus you need to provide the bounty id*/\n    function createFraudReport(string url, uint bountyId) public bountyIdExists(bountyId) returns (uint) {\n        require(msg.sender != bounties[bountyId].bountyCreator);\n\n        var fraudReportId = fraudReportsCounter++;\n        fraudReports[fraudReportId] = FraudReport(msg.sender, url, bountyId, false, 0);\n        FraudReportCreated(url, bountyId, fraudReportId);\n        return fraudReportId;\n    }\n\n    /** Creates a Bounty given a bounty amount */\n    function createBounty(uint bountyAmount) public returns (uint) {\n        require (msg.sender.balance >= bountyAmount);\n\n        var bountyId = bountiesCounter++;\n        bounties[bountyId] = Bounty(msg.sender, bountyAmount, 0);\n        BountyCreated(bountyAmount, bountyId);\n        return bountyId;\n    }\n    \n    /** \n        Rewards Bounty money to the address that generated the Fraud Report. \n        The Fraud Report must not have claimed the bounty again in the past.\n        The sender of the message must be the creator of the Bounty that the Fraud Report is claiming.\n        The value of the message must be exactly the same with the bounty amount.\n     */\n    function rewardBountyToFraudReport(uint fraudReportId) payable public fraudReportHasNotClaimedBounty(fraudReportId) returns (bool) {\n        require (msg.sender == bounties[fraudReports[fraudReportId].bountyId].bountyCreator);\n        require(msg.value == bounties[fraudReports[fraudReportId].bountyId].bountyAmount);\n\n        fraudReports[fraudReportId].bountyHunter.transfer(msg.value);\n        fraudReports[fraudReportId].bountyClaimed = true;\n        bounties[fraudReports[fraudReportId].bountyId].timesClaimed++;\n        bountiesClaimed++;\n        return true;\n    }\n\n    /** Upvotes a Fraud Report */\n    function upVoteFraudReport(uint fraudReportId) public {\n        fraudReports[fraudReportId].votes++;\n    }\n\n    /** Downvotes a Fraud Report */\n    function downVoteFraudReport(uint fraudReportId) public {\n        fraudReports[fraudReportId].votes--;\n    }\n}",
  "sourcePath": "/Users/evangeloskarvounis/Documents/ethereum-angular4/contracts/FraudReporting.sol",
  "compiler": {
    "name": "solc",
    "version": "0.4.18+commit.9cf6e910.Emscripten.clang"
  },
  "schemaVersion": "1.0.1",
  "updatedAt": "2018-01-18T13:47:44.699Z"
}